:100000000C9434000C943E000C943E000C943E0082
:100010000C943E000C943E000C943E000C943E0068
:100020000C943E000C943E000C943E000C943E0058
:100030000C943E000C943E000C943E000C943E0048
:100040000C943E000C943E000C943E000C943E0038
:100050000C943E000C943E000C943E000C943E0028
:100060000C943E000C943E0011241FBECFEFD8E04C
:10007000DEBFCDBF0E9440000C9463000C940000D2
:100080008AB18AB98CEF8BB980E284B989B129B180
:1000900039B189B1982F907223FF0CC034FD0AC08A
:1000A00080E285B989B129B139B189B1982F9072AF
:1000B00023FDF4CF81E0911101C080E08295880F8B
:0A00C000807E85B9EFCFF894FFCFE2
:00000001FF
