:100000000C9434000C943E000C943E000C943E0082
:100010000C943E000C943E000C943E000C943E0068
:100020000C943E000C943E000C943E000C943E0058
:100030000C943E000C943E000C943E000C943E0048
:100040000C943E000C943E000C943E000C943E0038
:100050000C943E000C943E000C943E000C943E0028
:100060000C943E000C943E0011241FBECFEFD8E04C
:10007000DEBFCDBF0E9440000C945C000C940000D9
:100080008FE084B980EF85B984E08AB906C032FF79
:100090000CC084E09BB1892B8BB983B123B133B100
:1000A00083B1982F987021FFF2CF81E0911101C0A8
:0C00B00080E0880F880FEECFF894FFCF9F
:00000001FF
